:020000040801F1
:1000000000000220F12D0108512C0108572C010895
:100010005D2C0108632C0108692C01080000000018
:1000200000000000000000000000000001C4010802
:100030006F2C01080000000051C60108B9C6010874
:10004000412E0108412E0108412E0108412E0108D0
:10005000412E0108412E0108412E0108412E0108C0
:10006000412E0108412E0108412E0108412E0108B0
:100070007D2C0108412E0108912C0108412E010818
:10008000412E0108412E0108A52C0108412E01082E
:10009000412E0108412E0108412E0108412E010880
:1000A000412E0108B92C0108412E0108412E0108FA
:1000B000CD2C0108E12C0108412E0108412E010838
:1000C000412E0108412E0108412E0108412E010850
:1000D000412E0108412E0108412E0108F52C01088E
:1000E000412E0108412E0108412E0108412E010830
:1000F000412E0108412E0108412E0108412E010820
:10010000412E0108412E0108412E0108412E01080F
:10011000412E0108412E0108412E0108412E0108FF
:10012000092D01081D2D0108412E0108412E01084D
:10013000412E0108412E0108412E0108412E0108DF
:10014000412E0108412E0108412E0108412E0108CF
:10015000412E0108312D0108412E0108452D0108CD
:10016000412E0108412E0108412E0108412E0108AF
:10017000412E0108412E0108412E01080000000017
:08018000412E0108412E010887
:1001900010B5054C237833B9044B13B10448AFF3C1
:1001A00000800123237010BDE0000020000000004B
:1001B00024FB020808B5034B1BB103490348AFF306
:1001C000008008BD00000000E400002024FB0208BD
:1001D000034613F8012B002AFBD1181A0138704787
:1001E00001F0FF01102A2BDB10F0070F08D010F8E8
:1001F000013B013A8B422DD010F0070F42B3F6D1EC
:10020000F0B441EA012141EA014122F007047FF004
:1002100000070023F0E80256083C85EA010586EA5B
:10022000010685FA47F5A3FA87F586FA47F6A5FA97
:1002300087F68EB9EED1F0BC01F0FF0102F00702A3
:1002400032B110F8013B013A83EA010313B1F8D14E
:100250000020704701387047002D06BF354603382F
:10026000073815F0010F07D1013015F4807F02BF68
:10027000013015F4C03F0130F0BC0138704700BFB9
:1002800081F0004102E000BF83F0004330B54FEA47
:1002900041044FEA430594EA050F08BF90EA020FB4
:1002A0001FBF54EA000C55EA020C7FEA645C7FEA47
:1002B000655C00F0E2804FEA5454D4EB5555B8BF6A
:1002C0006D420CDD2C4480EA020281EA030382EADB
:1002D000000083EA010180EA020281EA0303362D6D
:1002E00088BF30BD11F0004F4FEA01314FF4801C40
:1002F0004CEA113102D0404261EB410113F0004F52
:100300004FEA03334CEA133302D0524263EB430308
:1003100094EA050F00F0A780A4F10104D5F1200EA6
:100320000DDB02FA0EFC22FA05F2801841F1000101
:1003300003FA0EF2801843FA05F359410EE0A5F1D5
:1003400020050EF1200E012A03FA0EFC28BF4CF006
:10035000020C43FA05F3C01851EBE37101F00045BC
:1003600007D54FF0000EDCF1000C7EEB00006EEBC9
:100370000101B1F5801F1BD3B1F5001F0CD3490853
:100380005FEA30004FEA3C0C04F101044FEA4452AA
:1003900012F5800F80F09A80BCF1004F08BF5FEA31
:1003A000500C50F1000041EB045141EA050130BD11
:1003B0005FEA4C0C404141EB0101013C28BFB1F523
:1003C000801FE9D291F0000F04BF01460020B1FA6E
:1003D00081F308BF2033A3F10B03B3F120020CDA41
:1003E0000C3208DD02F1140CC2F10C0201FA0CF01F
:1003F00021FA02F10CE002F11402D8BFC2F1200C84
:1004000001FA02F120FA0CFCDCBF41EA0C01904039
:10041000E41AA2BF01EB0451294330BD6FEA040482
:100420001F3C1CDA0C340EDC04F11404C4F120026D
:1004300020FA04F001FA02F340EA030021FA04F37F
:1004400045EA030130BDC4F10C04C4F1200220FAD6
:1004500002F001FA04F340EA0300294630BD21FA14
:1004600004F0294630BD94F0000F83F4801306BFDA
:1004700081F480110134013D4EE77FEA645C18BFCE
:100480007FEA655C29D094EA050F08BF90EA020F65
:1004900005D054EA000C04BF1946104630BD91EA5D
:1004A000030F1EBF0021002030BD5FEA545C05D160
:1004B0004000494128BF41F0004130BD14F580049F
:1004C0003CBF01F5801130BD01F0004545F0FE4113
:1004D00041F470014FF0000030BD7FEA645C1ABF48
:1004E000194610467FEA655C1CBF0B46024650EA7F
:1004F000013406BF52EA033591EA030F41F40021AB
:1005000030BD00BF90F0000F04BF0021704730B530
:100510004FF4806404F132044FF000054FF0000105
:1005200050E700BF90F0000F04BF0021704730B5C6
:100530004FF4806404F1320410F0004548BF40429B
:100540004FF000013EE700BF42004FEAE2014FEAF0
:1005500031014FEA02701FBF12F07F4393F07F4FCB
:1005600081F06051704732F07F4208BF704793F0CE
:100570007F4F04BF41F40021704730B54FF46074E1
:1005800001F0004521F000411CE700BF50EA0102E4
:1005900008BF704730B54FF000050AE050EA01028D
:1005A00008BF704730B511F0004502D5404261EBFD
:1005B00041014FF4806404F132045FEA915C3FF43E
:1005C000D8AE4FF003025FEADC0C18BF03325FEADB
:1005D000DC0C18BF033202EBDC02C2F1200300FA8C
:1005E00003FC20FA02F001FA03FE40EA0E0021FAB1
:1005F00002F11444BDE600BF70B54FF0FF0C4CF49F
:10060000E06C1CEA11541DBF1CEA135594EA0C0F50
:1006100095EA0C0F00F0DEF82C4481EA030621EA8B
:100620004C5123EA4C5350EA013518BF52EA0335C6
:1006300041F4801143F4801338D0A0FB02CE4FF078
:100640000005E1FB02E506F00042E0FB03E54FF0A8
:100650000006E1FB03569CF0000F18BF4EF0010EA0
:10066000A4F1FF04B6F5007F64F5407404D25FEA9C
:100670004E0E6D4146EB060642EAC62141EA55514F
:100680004FEAC52040EA5E504FEACE2EB4F1FD0C91
:1006900088BFBCF5E06F1ED8BEF1004F08BF5FEA0F
:1006A000500E50F1000041EB045170BD06F00046C1
:1006B00046EA010140EA020081EA0301B4EB5C046E
:1006C000C2BFD4EB0C0541EA045170BD41F4801166
:1006D0004FF0000E013C00F3AB8014F1360FDEBF8B
:1006E000002001F0004170BDC4F10004203C35DA67
:1006F0000C341BDC04F11404C4F1200500FA05F3EA
:1007000020FA04F001FA05F240EA020001F000428A
:1007100021F0004110EBD37021FA04F642EB060100
:100720005EEA430E08BF20EAD37070BDC4F10C042A
:10073000C4F1200500FA04F320FA05F001FA04F2EE
:1007400040EA020001F0004110EBD37041F10001DA
:100750005EEA430E08BF20EAD37070BDC4F12005E5
:1007600000FA05F24EEA020E20FA04F301FA05F24D
:1007700043EA020321FA04F001F0004121FA04F2F5
:1007800020EA020000EBD3705EEA430E08BF20EAC5
:10079000D37070BD94F0000F0FD101F000464000FF
:1007A00041EB010111F4801F08BF013CF7D041EA81
:1007B000060195F0000F18BF704703F00046520085
:1007C00043EB030313F4801F08BF013DF7D043EA56
:1007D0000603704794EA0C0F0CEA135518BF95EA0C
:1007E0000C0F0CD050EA410618BF52EA4306D1D193
:1007F00081EA030101F000414FF0000070BD50EAB2
:10080000410606BF1046194652EA430619D094EA3B
:100810000C0F02D150EA013613D195EA0C0F05D125
:1008200052EA03361CBF104619460AD181EA030179
:1008300001F0004141F0FE4141F470014FF0000031
:1008400070BD41F0FE4141F4780170BD70B54FF0CC
:10085000FF0C4CF4E06C1CEA11541DBF1CEA13554C
:1008600094EA0C0F95EA0C0F00F0A7F8A4EB05042E
:1008700081EA030E52EA03354FEA013100F0888025
:100880004FEA03334FF0805545EA131343EA1263EE
:100890004FEA022245EA111545EA10654FEA0026A3
:1008A0000EF000419D4208BF964244F1FD0404F55C
:1008B000407402D25B084FEA3202B61A65EB0305B8
:1008C0005B084FEA32024FF480104FF4002CB6EB75
:1008D000020E75EB030E22BFB61A754640EA0C00F5
:1008E0005B084FEA3202B6EB020E75EB030E22BF35
:1008F000B61A754640EA5C005B084FEA3202B6EB76
:10090000020E75EB030E22BFB61A754640EA9C0034
:100910005B084FEA3202B6EB020E75EB030E22BF04
:10092000B61A754640EADC0055EA060E18D04FEAC2
:10093000051545EA16754FEA06164FEAC30343EA62
:1009400052734FEAC2025FEA1C1CC0D111F4801F2F
:100950000BD141EA00014FF000004FF0004CB6E728
:1009600011F4801F04BF01430020B4F1FD0C88BFC7
:10097000BCF5E06F3FF6AFAEB5EB030C04BFB6EBD2
:10098000020C5FEA500C50F1000041EB045170BDC5
:100990000EF0004E4EEA113114EB5C04C2BFD4EBF2
:1009A0000C0541EA045170BD41F480114FF0000E76
:1009B000013C90E645EA060E8DE60CEA135594EAF2
:1009C0000C0F08BF95EA0C0F3FF43BAF94EA0C0FF5
:1009D0000AD150EA01347FF434AF95EA0C0F7FF46A
:1009E00025AF104619462CE795EA0C0F06D152EABE
:1009F00003353FF4FDAE1046194622E750EA4106A2
:100A000018BF52EA43067FF4C5AE50EA41047FF4B2
:100A10000DAF52EA43057FF4EBAE12E74FF0FF3C17
:100A200006E000BF4FF0010C02E000BF4FF0010CE8
:100A30004DF804CD4FEA410C7FEA6C5C4FEA430C61
:100A400018BF7FEA6C5C1BD001B050EA410C0CBFB0
:100A500052EA430C91EA030F02BF90EA020F002012
:100A6000704710F1000F91EA030F58BF994208BF79
:100A700090422CBFD8176FEAE37040F00100704736
:100A80004FEA410C7FEA6C5C02D150EA013C07D18D
:100A90004FEA430C7FEA6C5CD6D152EA033CD3D0D8
:100AA0005DF8040B704700BF8446104662468C46D2
:100AB0001946634600E000BF01B5FFF7B7FF002805
:100AC00048BF10F1000F01BD4DF808EDFFF7F4FF2E
:100AD0000CBF012000205DF808FB00BF4DF808EDB9
:100AE000FFF7EAFF34BF012000205DF808FB00BFDC
:100AF0004DF808EDFFF7E0FF94BF012000205DF8FE
:100B000008FB00BF4DF808EDFFF7CEFF94BF0120B2
:100B100000205DF808FB00BF4DF808EDFFF7C4FFAB
:100B200034BF012000205DF808FB00BF4FEA410CF4
:100B30007FEA6C5C02D150EA013C0AD14FEA430CD7
:100B40007FEA6C5C02D152EA033C02D14FF0000014
:100B500070474FF00100704753B94AB9002908BFE8
:100B600000281CBF4FF0FF314FF0FF3000F06EB98E
:100B7000ADF1080C6DE904CE00F006F8DDF804E0F4
:100B8000DDE9022304B070472DE9F047089D0446D3
:100B90008C46002B40F083808A42174647D9B2FA30
:100BA00082F242B1C2F1200024FA00F09140974055
:100BB00040EA010C94404FEA1748230CBCFBF8F6BE
:100BC0001FFA87FE08FB16C143EA014306FB0EF13C
:100BD000994209D9FB1806F1FF3080F0198199423A
:100BE00040F21681023E3B445B1AA4B2B3FBF8F01C
:100BF00008FB103344EA034400FB0EFEA64509D966
:100C00003C1900F1FF3380F00581A64540F20281D6
:100C100002383C4440EA0640A4EB0E0400261DB115
:100C2000D4400023C5E900433146BDE8F08702B94E
:100C3000FFDEB2FA82F2002A50D1CB1B4FEA174EE8
:100C40001FFA87F80126B3FBFEFC210C0EFB1C33B8
:100C500041EA034108FB0CF38B4207D979180CF1E8
:100C6000FF3002D28B4200F2E9808446C91AA3B257
:100C7000B1FBFEF00EFB101143EA014408FB00F843
:100C8000A04507D93C1900F1FF3302D2A04500F27C
:100C9000D9801846A4EB080440EA0C40BFE78B4219
:100CA00009D9002D00F0B1800026C5E900013046C9
:100CB0003146BDE8F087B3FA83F6002E4AD18B4265
:100CC00002D3824200F2B880841A61EB0301012052
:100CD0008C46002DA8D0C5E9004CA5E7C2F1200341
:100CE00020FA03F6974001FA02F04FEA174ED94076
:100CF0003043030CB1FBFEF61FFA87F80EFB16110A
:100D000043EA014306FB08F1994204FA02F409D9C7
:100D1000FB1806F1FF3C80F08D80994240F28A80FA
:100D2000023E3B445B1A81B2B3FBFEF00EFB103374
:100D300041EA034100FB08F38B4207D9791800F11F
:100D4000FF3C73D28B4271D902383944CB1A40EA46
:100D5000064678E7C6F1200C03FA06F422FA0CF3F3
:100D60001C4320FA0CF701FA06F34FEA144E21FA5D
:100D70000CF11F433B0CB1FBFEF91FFA84F80EFB8C
:100D8000191143EA014109FB08FA8A4502FA06F201
:100D900000FA06F308D9611809F1FF3048D28A45F4
:100DA00046D9A9F102092144A1EB0A01BFB2B1FB66
:100DB000FEF00EFB101147EA014700FB08F8B845AA
:100DC00007D9E71900F1FF312ED2B8452CD90238E6
:100DD000274440EA0940A7EB0807A0FB02894F45DA
:100DE000C64649461AD317D05DB1B3EB0E0267EB86
:100DF000010707FA0CFCF2404CEA0202F740C5E991
:100E0000002700263146BDE8F0872E4628460BE72E
:100E10000646E9E61846FDE64345E5D2B8EB020E84
:100E200069EB04010138DFE70846D2E760468DE749
:100E30008146B9E7664675E730464AE7ACF1020CF1
:100E4000394413E702383C4424E700BF704700BF31
:100E500080B485B000AFF860B9607A60FB68074A7B
:100E60001A60BB68064A1A607B6880221A6000BF5D
:100E70001437BD465DF8047B704700BFFC000020BE
:100E8000B001002080B485B000AFF860B9607A602E
:100E9000FB68074A1A60BB68064A1A607B684FF411
:100EA00080721A6000BF1437BD465DF8047B70473E
:100EB000B00300206404002080B400AFBFF34F8F64
:100EC00000BF064BDB6803F4E0620449044B1343A4
:100ED000CB60BFF34F8F00BF00BFFDE700ED00E028
:100EE0000400FA0580B582B000AF78607B681B68AB
:100EF000104A934204D1104B1B68184608F0D8FAE8
:100F00007B681B680D4A93420FD10D4B1B68184636
:100F100008F0CEFA00224FF480610A4803F0B8FCD2
:100F200001220949094806F0FDFF00BF0837BD4608
:100F300080BD00BF00480040A09E0020001401407A
:100F4000989B00200018024050980020C49D00206B
:100F500080B582B000AF78607B681B68214A9342FD
:100F600019D1214B1B785A1CD1B21F4A11701A4655
:100F70001E4B19781E4B99541E4B1B681B4A127846
:100F800011464FF4FA62184608F0F0FA01221749A8
:100F9000194806F0C7FF7B681B68184A93421CD1AA
:100FA000174B1B7803F07F03DAB2154B1A70154B01
:100FB0001B785A1CD1B2134A11701A46104B19787B
:100FC000114B995400224FF48061104803F060FCEB
:100FD00001220B490E4806F0A5FF00BF0837BD46A9
:100FE00080BD00BF0048004064080020BC9B00207A
:100FF000C49C00200C8300205C820020001401406F
:1010000050980020650800200C9A0020001802402B
:10101000C49D002080B483B000AF78607B681B68FB
:101020003D4A934271D13D4B1B683D4A128813449F
:101030003A4A1360394B5B68394A52881344374A3D
:101040005360364B9B68364A92881344334A936008
:10105000344B1B889BB201339AB2324B1A80314B0E
:101060001B889BB2632B50D92E4B00221A802B4B2E
:101070001B682D4AA2FB03235B092C4A1360274BF4
:101080005B68294AA2FB03235B09294A1360234BAF
:101090009B68254AA2FB03235B09264A13601F4B6A
:1010A00000221A601D4B00225A601C4B00229A60DD
:1010B0001E4B1B6840F21B1202FB03F21E4BA3FBEC
:1010C0000213D21A52081344DB0A1C4A1360184B4D
:1010D0001B6840F21B1202FB03F2174BA3FB021327
:1010E000D21A52081344DB0A154A1360114B1B68CD
:1010F00040F21B1202FB03F20F4BA3FB0213D21AA6
:1011000052081344DB0A0F4A136000BF0C37BD4678
:101110005DF8047B704700BF002001406808002094
:10112000589F0020740800201F85EB519C9E0020D2
:10113000349800209C9B0020010110001097002093
:10114000C09C0020009A0020B0B5E6B000AF01F0CE
:1011500079FE00F0F3F900F029FD00F0F9FA00F053
:10116000D7FC00F04FFB00F055FC00F07DFC00F0D8
:1011700005FB00F0A3FC00F0BDFA00F079FB00F0E5
:101180004BFA00F0ADFB00F0F7FB19F02DFD32201B
:1011900001F09AFE19F034FDC14B1B6F03F00203FE
:1011A000002B02D019F038FD01E019F03CFDBD4BD9
:1011B0001B78BD4A1178BD4A18461CF0ACFD1CF0E6
:1011C00063FD0023C7F890310023C7F8943107F579
:1011D000C873184608F050F80346B54A1360002358
:1011E000C7F888310023C7F88C3107F5C473184657
:1011F00008F042F80346AF4A13600023C7F8803175
:101200000023C7F8843107F5C0730121184608F0A0
:10121000CFF80346A84A13600023C7F878310023AB
:10122000C7F87C3107F5BC730121184608F0C0F8F7
:101230000346A24A13600023C7F870310023C7F8A1
:10124000743107F5B8730121184608F0B1F8034668
:101250009B4A13600023C7F868310023C7F86C313C
:1012600007F5B4730121184608F0A2F80346954A21
:101270001360954BC7F860310023C7F8643107F558
:10128000B07300220021184607F042FF03468F4A40
:1012900013608F4BC7F858310023C7F85C3107F54E
:1012A000AC7300220021184607F032FF0346894A3A
:1012B0001360894B07F5A4740FCB84E80F0007F582
:1012C000A4730021184608F029F90346834A1360E5
:1012D000814B07F59C740FCB84E80F0007F59C73D6
:1012E0000021184608F01AF903467D4A13607D4B29
:1012F00007F58E741D460FCD0FC495E8070084E8EE
:10130000070007F58E730021184607F0A0FE03467C
:10131000754A1360754B07F580741D460FCD0FC4D9
:1013200095E8070084E8070007F580730021184658
:1013300007F08DFE03466E4A13606E4B07F1E4041E
:101340001D460FCD0FC495E8070084E8070007F19C
:10135000E4030021184607F07AFE0346664A13604C
:10136000664B07F1C8041D460FCD0FC495E8070072
:1013700084E8070007F1C8030021184607F067FE5C
:1013800003465F4A13605F4B07F1AC041D460FCD67
:101390000FC495E8070084E8070007F1AC030021BB
:1013A000184607F054FE0346574A136007F19003AE
:1013B000564A1C4615460FCD0FC495E8070084E831
:1013C000070007F190030021184607F040FE03468E
:1013D0004F4A136007F174034E4A1C4615460FCD61
:1013E0000FC495E8070084E8070007F174030021A3
:1013F000184607F02CFE0346474A136007F15803CE
:10140000464A1C4615460FCD0FC495E8070084E8F0
:10141000070007F158030021184607F018FE03469D
:101420003F4A136007F13C033E4A1C4615460FCD68
:101430000FC495E8070084E8070007F13C0300218A
:10144000184607F004FE0346374A136007F12003ED
:10145000364A1C4615460FCD0FC495E8070084E8B0
:10146000070007F120030021184607F0F0FD0346AE
:101470002F4A13603B1D2F4A1C4615460FCD0FC443
:1014800095E8070084E807003B1D0021184607F097
:10149000DEFD0346284A136007F0D2FDFEE700BFD9
:1014A000003802407608002000000020209700202D
:1014B0001C970020B89B0020A09E0020B89E002012
:1014C000989B00200C9B0020C91D01081497002048
:1014D000E91D010824970020E0FB02080C8300208E
:1014E000FC820020F0FB0208388100200CFC02087E
:1014F000089A002028FC0208049A002044FC0208F4
:101500003898002060FC0208909700207CFC0208BC
:10151000F882002098FC020818970020B4FC02080A
:1015200088970020D0FC0208F4810020ECFC02081F
:10153000BC9C002008FD0208A082002080B594B069
:1015400000AF07F120033022002118461CF08EFE68
:1015500007F10C0300221A605A609A60DA601A617F
:101560000023BB602A4B1B6C294A43F08053136451
:10157000274B1B6C03F08053BB60BB6800237B6070
:10158000244B1B68234A43F480431360214B1B68A0
:1015900003F480437B607B680D233B624FF4803310
:1015A0007B620123BB6201237B630223BB634FF495
:1015B0008003FB6319233B644FF4A8737B6402230D
:1015C000BB640423FB6407F12003184604F05AF9B6
:1015D0000346002B01D000F049FF0F23FB600223DC
:1015E0003B6100237B614FF4A053BB614FF48053F8
:1015F000FB6107F10C030521184604F0BBFB034611
:10160000002B01D000F032FF00BF5037BD4680BD37
:10161000003802400070004080B584B000AF3B4607
:1016200000221A605A609A60DA602F4B2F4A1A60C3
:101630002D4B4FF480325A602B4B00229A602A4B7C
:1016400001221A61284B00221A76274B002283F8C8
:101650002020254B0022DA62234B254A9A62224B36
:101660000022DA60204B0322DA611F4B002283F84C
:1016700030201D4B01225A611B4801F049FC0346F2
:10168000002B01D000F0F2FE0A233B6001237B60B7
:101690000023BB603B461946134801F0BBFE0346DE
:1016A000002B01D000F0E2FE0C233B6002237B60A4
:1016B0003B4619460C4801F0ADFE0346002B01D015
:1016C00000F0D4FE0D233B6003237B603B461946AC
:1016D000054801F09FFE0346002B01D000F0C6FE36
:1016E00000BF1037BD4680BDB099002000200140EA
:1016F0000100000F80B500AF124B134A1A60114B66
:10170000124A5A600F4B00229A600E4B0022DA6098
:101710000C4B4FF480421A610A4B00225A61094B6C
:1017200000229A61074B0022DA61064B00221A62FE
:10173000044803F0E1F80346002B01D000F096FEC8
:1017400000BF80BDA482002000540040A08601009C
:1017500080B400AF074B084A1A60064B03225A6058
:10176000044B4FF47A629A6000BFBD465DF8047B7B
:10177000704700BF008300200030004080B586B075
:1017800000AF3B1D00221A605A609A60DA601A614D
:1017900000233B60194B1A4A1A60184B00225A600A
:1017A000164B7F229A60154BFF22DA60134B002202
:1017B0001A61124B00225A61104B00229A610F48A5
:1017C00004F0BCFD0346002B01D000F04FFE0023C7
:1017D0003B7100237B710023BB7100233B6100231D
:1017E0007B6101233B7001237B700123BB700023CD
:1017F000FB7000BF1837BD4680BD00BF749B002042
:101800000028004080B500AF174B184A1A60164BED
:101810004FF482725A60144B00229A60124B0022DD
:10182000DA60114B00221A610F4B00225A610E4BF5
:101830004FF400729A610C4B2022DA610A4B0022AD
:101840001A62094B00225A62074B00229A62064B29
:101850000A22DA62044805F06FF80346002B01D033
:1018600000F004FE00BF80BD9C81002000380040D5
:1018700080B500AF184B194A1A60174B4FF48272AB
:101880005A60154B4FF400429A60134B0022DA6005
:10189000114B00221A61104B00225A610E4B4FF47B
:1018A00000729A610C4B2022DA610B4B00221A6203
:1018B000094B00225A62084B00229A62064B0A2208
:1018C000DA62054805F038F80346002B01D000F035
:1018D000CDFD00BF80BD00BFDC970020003C004074
:1018E00080B586B000AF07F1080300221A605A6085
:1018F0009A60DA603B4600221A605A601D4B4FF036
:1019000080421A601B4B53225A601A4B00229A6085
:10191000184B40F2E732DA60164B00221A61154B81
:1019200000229A61134805F0AFFD0346002B01D059
:1019300000F09CFD4FF48053BB6007F1080319468B
:101940000C4805F069FF0346002B01D000F08EFD26
:1019500000233B6000237B603B461946054806F0A8
:1019600085F90346002B01D000F080FD00BF183739
:10197000BD4680BD089E002080B586B000AF07F14F
:10198000080300221A605A609A60DA603B4600221F
:101990001A605A601D4B1E4A1A601C4B00225A6086
:1019A0001A4B00229A60194B42F2CF02DA60174BB1
:1019B00000221A61154B00229A61144805F064FD5B
:1019C0000346002B01D000F051FD4FF48053BB6063
:1019D00007F1080319460D4805F01EFF0346002BCA
:1019E00001D000F043FD00233B6000237B603B46B9
:1019F0001946064806F03AF90346002B01D000F0DC
:101A000035FD00BF1837BD4680BD00BF949700204C
:101A10000004004080B500AF114B124A1A60104B11
:101A20004FF4E1325A600E4B00229A600C4B0022B8
:101A3000DA600B4B00221A61094B0C225A61084BE9
:101A400000229A61064B0022DA61054806F09EF9F1
:101A50000346002B01D000F009FD00BF80BD00BF90
:101A6000589E00200044004080B500AF114B124A40
:101A70001A60104B4FF416525A600E4B00229A60B7
:101A80000C4B0022DA600B4B00221A61094B0C222E
:101A90005A61084B00229A61064B0022DA61054820
:101AA00006F074F90346002B01D000F0DFFC00BF04
:101AB00080BD00BF5C8200200048004080B500AFC0
:101AC000114B124A1A60104B4FF416525A600E4BCB
:101AD00000229A600C4B0022DA600B4B4FF48062BC
:101AE0001A61094B0C225A61074B00229A61064B7E
:101AF0000022DA61044806F049F90346002B01D0C0
:101B000000F0B4FC00BF80BDC49D00200014014063
:101B100080B582B000AF00237B60234B1B6B224A51
:101B200043F400131363204B1B6B03F400137B601F
:101B30007B6800233B601C4B1B6B1B4A43F48003F8
:101B40001363194B1B6B03F480033B603B6800225B
:101B500005210C2001F0C0FF0C2001F0D9FF00226C
:101B600005210E2001F0B8FF0E2001F0D1FF002268
:101B70000521382001F0B0FF382001F0C9FF002214
:101B80000521392001F0A8FF392001F0C1FF002212
:101B90000521452001F0A0FF452001F0B9FF00BF5D
:101BA0000837BD4680BD00BF0038024080B58CB00C
:101BB00000AF07F11C0300221A605A609A60DA60D5
:101BC0001A610023BB617A4B1B6B794A43F0100307
:101BD0001363774B1B6B03F01003BB61BB690023DE
:101BE0007B61734B1B6B724A43F004031363704BAE
:101BF0001B6B03F004037B617B6900233B616C4B2F
:101C00001B6B6B4A43F080031363694B1B6B03F040
:101C100080033B613B690023FB60654B1B6B644A9F
:101C200043F001031363624B1B6B03F00103FB6082
:101C3000FB680023BB605E4B1B6B5D4A43F00203F5
:101C400013635B4B1B6B03F00203BB60BB68002399
:101C50007B60574B1B6B564A43F008031363544B8E
:101C60001B6B03F008037B607B68002248F27E0157
:101C7000504802F00DFE002242F202014E4802F0EE
:101C800007FE002203214D4802F002FE00224FF41D
:101C900081514B4802F0FCFD00224FF4406149485D
:101CA00002F0F6FD01224FF40061434802F0F0FD1E
:101CB00048F27E03FB6101233B6200237B62002329
:101CC000BB6207F11C0319463A4802F031FB42F6A9
:101CD0000203FB6101233B6200237B620023BB62A2
:101CE00007F11C031946344802F022FB0323FB6171
:101CF00001233B6200237B620023BB6207F11C03CC
:101D000019462E4802F014FBF023FB6100233B62CE
:101D100000237B6207F11C031946284802F008FBE8
:101D20003023FB6100233B6200237B6207F11C032D
:101D30001946214802F0FCFA0323FB6100233B62B1
:101D400000237B6207F11C0319461D4802F0F0FADC
:101D500040F28173FB6100233B6200237B6207F149
:101D60001C031946134802F0E3FA4FF48153FB6158
:101D700001233B6200237B620023BB6207F11C034B
:101D800019460F4802F0D4FA4FF44063FB61012377
:101D90003B6202237B620023BB6207F11C031946EE
:101DA000084802F0C5FA00BF3037BD4680BD00BF0D
:101DB00000380240001002400008024000000240CB
:101DC00000040240000C024080B483B000AF786091
:101DD000044B00221A7000BF0C37BD465DF8047B2F
:101DE000704700BF109B002080B582B000AF7860C4
:101DF00019F086F8054B1B684EF66021184607F06F
:101E0000BBF900BF0837BD4680BD00BF2497002046
:101E100080B582B000AF7860084B1B684FF0FF318F
:101E2000184607F041FA054B1B68184607F08AFA76
:101E30004FF47A7007F057F9EEE700BFB89B002027
:101E400080B582B000AF78607B681B68954A93428A
:101E500001D101F019F87B681B68934A934207D1BE
:101E6000924805F061FB03229149924801F0A4F9E0
:101E70007B681B68B3F1804F40F0E5824FF08043F0
:101E800000225A6280218C4802F0EAFC0346002BB3
:101E900025D18A4B1B889AB2894B1B889BB29A42E8
:101EA00007D2864B1B889BB201339AB2834B1A80B0
:101EB00011E0824B1B889AB2814B1B889BB29A42DD
:101EC00009D17E4B1B889BB201339AB27B4B1A809F
:101ED0007C4B01221A707C4B00221A7038E0774B41
:101EE0001B889BB2052B11D9744B1B889AB2744B7B
:101EF0001B889BB29A4209D2704B00221A80734B06
:101F000001221A706E4BC8221A800DE06B4B1B88A1
:101F10009AB26B4B1B889BB29A4205D3674B002247
:101F20001A80674BC8221A80674B1B78DBB2132BD1
:101F30000ED8654B1B78DBB20133DAB2624B1A70F4
:101F4000614B1B78DBB2142B02D15D4BC8221A8087
:101F50005E4B1B78DBB2012B1FD15C4B00221A7049
:101F60005B4B00221A805B4B1B889BB2002B14D06A
:101F7000594B1B889BB2002B07D1564B1B889BB239
:101F8000013B9AB2534B1A8007E0534B1B889BB21C
:101F9000022B02D1514B01221A704A4B1B78DBB243
:101FA000012B3AD1474B00221A70494B00221A806C
:101FB000484B1B889BB2002B2CD0474B1B889BB2F5
:101FC000002B13D1434B1B889BB2013B9AB2414B70
:101FD0001A803B4B1B889BB20A2B1BD9384B1B88A2
:101FE0009BB20A3B9AB2364B1A8013E03A4B1B88DD
:101FF0009BB2022B0ED1394B01221A70304B1B8839
:102000009BB2052B06D92E4B1B889BB2053B9AB27F
:102010002B4B1A80294B00221A804FF480712648DE
:1020200002F01EFC0346002B25D12D4B1B889AB2D3
:10203000234B1B889BB29A4207D2294B1B889BB229
:1020400001339AB2264B1A8011E0254B1B889AB2B5
:102050001B4B1B889BB29A4209D1214B1B889BB218
:1020600001339AB21E4B1A801E4B01221A701E4B6E
:1020700000221A705EE01A4B1B889BB2052B37D9E1
:10208000174B1B889AB20E4B1B889BB29A422FD2D9
:10209000134B00221A80154B01221A70084BC822DC
:1020A0001A8033E0000001400004004094970020B3
:1020B000589F0020B09900200010024078080020AE
:1020C000020000207B080020880800207A080020F9
:1020D00004000020108000201280002015800020C5
:1020E0007C0800207F080020890800207E0800204E
:1020F000924B1B889AB2924B1B889BB29A4205D393
:102100008E4B00221A808E4BC8221A808D4B1B7872
:10211000DBB2132B0ED88B4B1B78DBB20133DAB258
:10212000884B1A70874B1B78DBB2142B02D1844B7F
:10213000C8221A80844B1B78DBB2012B21D1824B41
:1021400000221A70814B00221A80814B1B889BB29F
:1021500040F29A62934214D87E4B1B889BB2002BAC
:1021600007D17B4B1B889BB201339AB2784B1A8004
:1021700007E0784B1B889BB2022B02D1764B0122E1
:102180001A70764B1B78DBB2012B3CD1734B0022CB
:102190001A706E4B00221A806D4B1B889BB240F266
:1021A0009A6293422CD86B4B1B889BB2002B13D1A5
:1021B000674B1B889BB201339AB2654B1A80604B08
:1021C0001B889BB20A2B1BD95D4B1B889BB20A3B19
:1021D0009AB25B4B1A8013E05E4B1B889BB2022BBA
:1021E0000ED15D4B01221A70554B1B889BB2052BFB
:1021F00006D9534B1B889BB2053B9AB2504B1A80B1
:102200004E4B00221A804FF40071554802F028FB13
:102210000346002B1ED1534B1B889BB2B3F5FA6FBC
:1022200007D2504B1B889BB201339AB24D4B1A8098
:102230002BE04C4B1B889BB2B3F5FA6F25D1494B71
:102240001B889BB201339AB2464B1A80464B01223F
:102250001A701AE0434B1B889BB2052B0CD9414BDB
:102260001B889BB2B3F5FA6F06D23E4B00221A8050
:102270003E4B01221A7008E03A4B1B889BB2B3F523
:10228000FA6F02D3374B00221A80384B1B78DBB22F
:10229000012B11D1354B00221A702C4B00221A80D1
:1022A0002C4B1B889BB2012B06D12A4B1B889BB25F
:1022B000013B9AB2274B1A802B4B1B78DBB2012BC8
:1022C00002D1294B00221A704FF48061244802F099
:1022D000C7FA0346002B1ED1254B1B889BB2B3F5D2
:1022E000FA6F07D2224B1B889BB201339AB2204B64
:1022F0001A804CE01E4B1B889BB2B3F5FA6F46D197
:102300001B4B1B889BB201339AB2194B1A80194B95
:1023100001221A703BE0164B1B889BB2052B2DD96E
:10232000134B1B889BB2B3F5FA6F27D2104B0022D8
:102330001A80114B01221A7029E000BF7C0800208E
:1023400002000020890800207E08002004000020F0
:102350001080002012800020148000207F080020C0
:10236000001002408008002083080020820800201E
:10237000840800208708002086080020344B1B8832
:102380009BB2B3F5FA6F02D3314B00221A80314B66
:102390001B78DBB2012B11D12E4B00221A702E4B71
:1023A00000221A802D4B1B889BB2002B06D12B4B91
:1023B0001B889BB201339AB2284B1A80284B1B789A
:1023C000DBB2012B1FD1264B00221A70234B1B8836
:1023D0009BB2012B0FD1234B1B889BB2442B0AD9F4
:1023E000204B1B889BB240F29B62934203D81B4B4D
:1023F00002221A8007E0194B1B889BB2022B02D1E4
:10240000194B01221A70144B1B889BB247F22F52B2
:10241000934207D8104B1B889BB201339AB20E4BE4
:102420001A8010E00C4B1B889BB247F2305293424B
:1024300009D10A4B00221A800A4B00221A80064B4F
:1024400047F231521A8000BF0837BD4680BD00BF39
:10245000840800208608002004000020128000204C
:1024600087080020108000201680002080B500AF73
:10247000FEF722FD80B582B000AF00237B60124BD7
:102480005B6C114A43F4804353640F4B5B6C03F461
:1024900080437B607B6800233B600B4B1B6C0A4ACC
:1024A00043F080531364084B1B6C03F080533B6074
:1024B0003B6800220F216FF0010001F00DFB00BF0F
:1024C0000837BD4680BD00BF0038024080B58AB0E5
:1024D00000AF786007F1140300221A605A609A6016
:1024E000DA601A617B681B68324A93425ED100232E
:1024F0003B61314B5B6C304A43F4807353642E4B29
:102500005B6C03F480733B613B690023FB602A4BE7
:102510001B6B294A43F004031363274B1B6B03F027
:102520000403FB60FB680D237B610323BB61002375
:10253000FB6107F114031946204801F0F9FE204B16
:10254000204A1A601E4B00225A601D4B00229A60DE
:102550001B4B0022DA601A4B4FF480621A61184B51
:102560004FF400625A61164B4FF400529A61144BBB
:102570000022DA61124B00221A62114B00225A62C9
:102580000F4801F0D3FA0346002B01D0FFF76EFF8E
:102590007B680B4A9A630A4A7B6893630022052191
:1025A000122001F099FA122001F0B2FA00BF283788
:1025B000BD4680BD002001400038024000080240B6
:1025C000149B00201064024080B58AB000AF786090
:1025D00007F1140300221A605A609A60DA601A61E7
:1025E0007B681B68194A93422CD100233B61184B2E
:1025F0001B6B174A43F002031363154B1B6B03F06D
:1026000002033B613B694FF440737B611223BB6162
:102610000023FB6103233B6204237B6207F1140365
:1026200019460C4801F084FE0023FB60084B1B6C2C
:10263000074A43F400131364054B1B6C03F40013A7
:10264000FB60FB6800BF2837BD4680BD00540040DA
:10265000003802400004024080B582B000AF7860CC
:102660007B681B680B4A93420FD10B4B1B6C0A4AC9
:1026700023F4001313644FF48071084801F0F4FF51
:102680004FF40071054801F0EFFF00BF0837BD4669
:1026900080BD00BF005400400038024000040240EA
:1026A00080B586B000AF786007F1080300221A6099
:1026B0005A609A60DA607B681B680C4A934211D1B9
:1026C0000223BB604FF480737B6107F10803184657
:1026D00003F052FD0346002B01D0FFF7C7FE044B69
:1026E00001221A6000BF1837BD4680BD0028004097
:1026F0003C0E474280B58CB000AF786007F11C03F8
:1027000000221A605A609A60DA601A617B681B685E
:10271000334A93422DD10023BB61324B1B6C314AAB
:1027200043F4804313642F4B1B6C03F48043BB6161
:10273000BB6900237B612B4B1B6B2A4A43F00203CE
:102740001363284B1B6B03F002037B617B694FF41F
:102750006043FB6102233B6200237B620323BB6275
:102760000523FB6207F11C0319461F4801F0E0FD39
:1027700031E07B681B681D4A93422CD100233B61EA
:10278000184B1B6C174A43F400431364154B1B6C26
:1027900003F400433B613B690023FB60114B1B6B5F
:1027A000104A43F0040313630E4B1B6B03F0040346
:1027B000FB60FB684FF4A053FB6102233B620023E4
:1027C0007B620323BB620623FB6207F11C031946ED
:1027D000074801F0ADFD00BF3037BD4680BD00BFEA
:1027E000003800400038024000040240003C004035
:1027F0000008024080B584B000AF78607B681B6839
:10280000B3F1804F16D10023FB601A4B1B6C194AA1
:1028100043F001031364174B1B6C03F00103FB60CF
:10282000FB68002205211C2001F056F91C2001F054
:102830006FF91AE07B681B680F4A934215D1002399
:10284000BB600C4B1B6C0B4A43F002031364094B37
:102850001B6C03F00203BB60BB68002205211D2036
:1028600001F03AF91D2001F053F900BF1037BD46C1
:1028700080BD00BF003802400004004080B58EB02B
:1028800000AF786007F1240300221A605A609A6052
:10289000DA601A617B681B68634A93422CD100237B
:1028A0003B62624B1B6C614A43F4003313645F4B21
:1028B0001B6C03F400333B623B6A0023FB615B4B00
:1028C0001B6B5A4A43F001031363584B1B6B03F015
:1028D0000103FB61FB690C237B620223BB620023C3
:1028E000FB6203233B6307237B6307F12403194641
:1028F0004F4801F01DFD3FE17B681B684D4A934244
:1029000040F0A4800023BB61484B1B6C474A43F452
:1029100080231364454B1B6C03F48023BB61BB69AC
:1029200000237B61414B1B6B404A43F0020313635E
:102930003E4B1B6B03F002037B617B694FF44063EA
:102940007B620223BB620023FB6203233B630723FA
:102950007B6307F124031946374801F0E9FC374B44
:10296000374A1A60354B4FF000625A60334B4022B1
:102970009A60324B0022DA60304B4FF480621A6169
:102980002E4B00225A612D4B00229A612B4B0022C4
:10299000DA612A4B00221A62284B00225A62274829
:1029A00001F0C4F80346002B01D0FFF75FFD7B6800
:1029B000224A5A63214A7B689363224B224A1A6057
:1029C000204B4FF000625A601E4B00229A601D4B54
:1029D0000022DA601B4B4FF480621A61194B00220F
:1029E0005A61184B00229A61164B0022DA61154B8E
:1029F00000221A62134B00225A62124801F096F824
:102A00000346002B01D0FFF731FD7B680D4A9A6326
:102A10000C4A7B68936300220521272001F05CF8B3
:102A2000272001F075F8A7E000440040003802407C
:102A300000000240004800400004024028970020A7
:102A400058600240F8810020286002407B681B68C3
:102A50004B4A934240F0908000233B61494B5B6CB2
:102A6000484A43F020035364464B5B6C03F0200359
:102A70003B613B690023FB60424B1B6B414A43F0C7
:102A8000040313633F4B1B6B03F00403FB60FB6801
:102A9000C0237B620223BB620023FB6203233B63F0
:102AA00008237B6307F124031946374801F040FCF3
:102AB000364B374A1A60354B4FF020625A60334B21
:102AC00040229A60314B0022DA60304B4FF4806232
:102AD0001A612E4B00225A612C4B00229A612B4B1B
:102AE0000022DA61294B00221A62284B00225A6226
:102AF000264801F01BF80346002B01D0FFF7B6FC77
:102B00007B68224A5A63214A7B689363214B224A9D
:102B10001A60204B4FF020625A601E4B00229A60D0
:102B20001C4B0022DA601B4B4FF480621A61194B78
:102B300000225A61174B00229A61164B0022DA617B
:102B4000144B00221A62134B00225A62114800F003
:102B5000EDFF0346002B01D0FFF788FC7B680D4A90
:102B60009A630C4A7B68936300220521472000F09A
:102B7000B3FF472000F0CCFF00BF3837BD4680BD13
:102B80000014014000380240000802405099002023
:102B9000A06402403C8100202864024080B58CB0D3
:102BA00000AF78600023FB620023BB6200227968DB
:102BB000192000F091FF192000F0AAFF0023FB600C
:102BC0001F4B5B6C1E4A43F0010353641C4B5B6C50
:102BD00003F00103FB60FB6807F1100207F1140327
:102BE0001146184603F096FA03F080FA03465B009C
:102BF000FB62FB6A134AA2FB03239B0C013BBB62F3
:102C0000114B124A1A60104B40F2E732DA600E4A5A
:102C1000BB6A53600C4B00221A610B4B00229A6076
:102C2000094804F031FC0346002B04D1064804F0A7
:102C30007BFC034600E0012318463037BD4680BDCB
:102C40000038024083DE1B43BC9E00200000014090
:102C500080B400AFFEE780B400AFFEE780B400AF01
:102C6000FEE780B400AFFEE780B400AFFEE780B4BB
:102C700000AF00BFBD465DF8047B704780B500AF74
:102C8000024801F0EBF800BF80BD00BFF8810020D2
:102C900080B500AF024801F0E1F800BF80BD00BF81
:102CA0002897002080B500AF024800F074F900BFFB
:102CB00080BD00BFB099002080B500AF024804F08D
:102CC000A3FC00BF80BD00BFBC9E002080B500AF4C
:102CD000024804F099FC00BF80BD00BF089E0020A0
:102CE00080B500AF024804F08FFC00BF80BD00BF7C
:102CF0009497002080B500AF024805F043F900BF6B
:102D000080BD00BF5C82002080B500AF024801F0AA
:102D1000A5F800BF80BD00BF149B002080B500AFA8
:102D2000024801F09BF800BF80BD00BF3C8100203D
:102D300080B500AF024801F091F800BF80BD00BF30
:102D40005099002080B500AF024805F01BF900BF84
:102D500080BD00BFC49D002080B586B000AF786004
:102D6000144A154BD31A7B617B693B61134B1B687B
:102D7000002B02D1114B124A1A60104B1A687B6863
:102D800013443A699A4207D21BF036FA03460C22E2
:102D90001A604FF0FF3309E0084B1B68FB60074BDC
:102DA0001A687B681344054A1360FB681846183795
:102DB000BD4680BD00000220000400008C080020F9
:102DC00080B0002080B400AF074BD3F88830064AAB
:102DD00043F47003C2F88830034B044A9A6000BF82
:102DE000BD465DF8047B704700ED00E0000001087F
:102DF000DFF834D00D480E490E4A002302E0D458C3
:102E0000C4500433C4188C42F9D30B4A0B4C002332
:102E100001E013600432A242FBD3FFF7D3FF1BF0A3
:102E2000F1F9FEF791F97047000002200000002040
:102E3000E000002050020308E00000207CB00020E9
:102E4000FEE7000080B500AF0E4B1B680D4A43F44F
:102E5000007313600B4B1B680A4A43F480631360D2
:102E6000084B1B68074A43F480731360032000F08B
:102E700028FE0F20FFF792FEFFF7FCFA002318460A
:102E800080BD00BF003C024080B400AF064B1B7801
:102E90001A46064B1B681344044A136000BFBD4624
:102EA0005DF8047B704700BF10000020049F0020E5
:102EB00080B400AF034B1B681846BD465DF8047B29
:102EC000704700BF049F002080B584B000AF7860D9
:102ED000FFF7EEFFB8607B68FB60FB68B3F1FF3F74
:102EE00005D00A4B1B781A46FB681344FB6000BFF1
:102EF000FFF7DEFF0246BB68D31AFA689A42F7D89A
:102F000000BF00BF1037BD4680BD00BF10000020CD
:102F100080B584B000AF78600023FB737B68002B22
:102F200001D1012333E07B681B6C002B09D1786849
:102F3000FFF7CCFA7B6800225A647B68002283F892
:102F40003C207B681B6C03F01003002B18D17B68BE
:102F50001B6C23F4885323F0020343F002027B68C6
:102F60001A64786800F078FB7B6800225A647B68FA
:102F70001B6C23F0030343F001027B681A6401E039
:102F80000123FB737B68002283F83C20FB7B1846FF
:102F90001037BD4680BD80B586B000AF7860002395
:102FA0007B6100233B617B681B681B68FB607B685F
:102FB0001B685B68BB60FB6803F002037B61BB6856
:102FC00003F020033B617B69002B49D03B69002B58
:102FD00046D07B681B6C03F01003002B05D17B6887
:102FE0001B6C43F400727B681A647B681B689B68E7
:102FF00003F04053002B2BD17B681B7E002B27D185
:103000007B681B68DB6A03F47003002B06D07B68C7
:103010001B689B6803F48063002B19D17B681B68D5
:103020005A687B681B6822F020025A607B681B6C20
:1030300023F480727B681A647B681B6C03F48053F2
:10304000002B05D17B681B6C43F001027B681A647E
:103050007868FDF7DFFF7B681B686FF012021A606B
:10306000FB6803F004037B61BB6803F080033B61F2
:103070007B69002B57D03B69002B54D07B681B6CBD
:1030800003F01003002B05D17B681B6C43F4005246
:103090007B681A647B681B689B6803F44013002BF1
:1030A00039D17B681B689B6B03F44013002B06D05F
:1030B0007B681B689B6803F48063002B2BD17B68C3
:1030C0001B685B6803F48063002B24D17B681B685A
:1030D0009B6803F04053002B1DD17B681B7E002BA7
:1030E00019D17B681B685A687B681B6822F08002D4
:1030F0005A607B681B6C23F480527B681A647B687F
:103100001B6C03F48073002B05D17B681B6C43F0B0
:1031100001027B681A64786800F01CFC7B681B68FD
:103120006FF00C021A60FB6803F001037B61BB685F
:1031300003F040033B617B69002B17D03B69002BF8
:1031400014D07B681B681B6803F00103012B0DD1B1
:103150007B681B6C43F480327B681A64786800F0EB
:1031600045F97B681B686FF001021A60FB6803F089
:1031700020037B61BB6803F080633B617B69002BAC
:1031800015D03B69002B12D07B685B6C43F00202C8
:103190007B685A647B681B686FF020021A6078684D
:1031A00000F02EF97B681B686FF020021A6000BFE8
:1031B0001837BD4680BD000080B586B000AFF8600E
:1031C000B9607A6000233B61FB6893F83C30012BC7
:1031D00001D10223E9E0FB68012283F83C20FB686F
:1031E0001B689B6803F00103012B18D0FB681B6868
:1031F0009A68FB681B6842F001029A606D4B1B687D
:103200006D4AA2FB03239A0C13465B0013443B61F7
:1032100002E03B69013B3B613B69002BF9D1FB6854
:103220001B689B6803F48073B3F5807F07D1FB684C
:103230001B689A68FB681B6822F480729A60FB68BE
:103240001B689B6803F00103012B40F0A180FB6821
:103250001B6C23F4E06323F0010343F48072FB68EA
:103260001A64FB681B685B6803F48063002B07D05B
:10327000FB681B6C23F4405343F48052FB681A64D0
:10328000FB681B6C03F48053B3F5805F06D1FB68C9
:103290005B6C23F00602FB685A6402E0FB680022C4
:1032A0005A64FB68002283F83C20444B7B61FB6836
:1032B0009B6B434ADA63FB689B6B424A1A64FB6868
:1032C0009B6B414ADA64FB681B686FF022021A604C
:1032D000FB681B685A68FB681B6842F080625A6092
:1032E000FB681B689A68FB681B6842F480729A60EE
:1032F000FB68986BFB681B684C331946BA687B689F
:1033000000F0C2FC7B695B6803F01F03002B2AD12D
:10331000FB681B682D4A934215D0FB681B682C4A3A
:10332000934205D1254B5B6803F01F03002B0AD0A5
:10333000FB681B68274A934236D1204B5B6803F039
:103340001003002B30D1FB681B689B6803F04053CF
:10335000002B29D1FB681B689A68FB681B6842F048
:1033600080429A6020E0FB681B68184A93421BD198
:10337000FB681B689B6803F04053002B14D1FB686B
:103380001B689A68FB681B6842F080429A600BE0F9
:10339000FB681B6C43F01002FB681A64FB685B6CF3
:1033A00043F00102FB685A64002318461837BD46F3
:1033B00080BD00BF0800002083DE1B4300230140C6
:1033C000513801080B390108273901080020014054
:1033D000002101400022014080B483B000AF78603A
:1033E00000BF0C37BD465DF8047B704780B483B0E6
:1033F00000AF786000BF0C37BD465DF8047B7047B6
:1034000080B483B000AF786000BF0C37BD465DF874
:10341000047B704780B485B000AF786039600023CA
:10342000BB607B6893F83C30012B01D1022305E19E
:103430007B68012283F83C203B681B68092B25D957
:103440007B681B68D9683B681B689BB21A461346A9
:103450005B0013441E3B072202FA03F3DA437B6846
:103460001B680A40DA607B681B68D9683B689A6809
:103470003B681B689BB2184603465B0003441E3B37
:103480009A407B681B680A43DA6022E07B681B680D
:1034900019693B681B689BB21A4613465B001344CC
:1034A000072202FA03F3DA437B681B680A401A61B9
:1034B0007B681B6819693B689A683B681B689BB20C
:1034C000184603465B0003449A407B681B680A4326
:1034D0001A613B685B68062B24D87B681B68596BB4
:1034E0003B685A6813469B001344053B1F2202FAAF
:1034F00003F3DA437B681B680A405A637B681B68E6
:10350000596B3B681B689BB218463B685A68134668
:103510009B001344053B00FA03F27B681B680A43D7
:103520005A634CE03B685B680C2B24D87B681B68B3
:10353000196B3B685A6813469B001344233B1F22B8
:1035400002FA03F3DA437B681B680A401A637B685C
:103550001B68196B3B681B689BB218463B685A682E
:1035600013469B001344233B00FA03F27B681B685D
:103570000A431A6323E07B681B68D96A3B685A6870
:1035800013469B001344413B1F2202FA03F3DA4324
:103590007B681B680A40DA627B681B68D96A3B68F3
:1035A0001B689BB218463B685A6813469B0013443D
:1035B000413B00FA03F27B681B680A43DA62224B44
:1035C000FB607B681B68214A934209D13B681B68FA
:1035D000122B05D1FB685B6843F48002FB685A60DC
:1035E0007B681B68194A934223D13B681B68102BE8
:1035F00003D03B681B68112B1BD1FB685B6843F44D
:103600000002FB685A603B681B68102B11D1104BFD
:103610001B68104AA2FB03239A0C13469B00134419
:103620005B00BB6002E0BB68013BBB60BB68002B7A
:10363000F9D17B68002283F83C2000231846143718
:10364000BD465DF8047B7047002301400020014027
:103650000800002083DE1B4380B485B000AF786093
:10366000794BFB60FB685B6823F44032FB685A606F
:10367000FB685A687B685B681A43FB685A607B6822
:103680001B685A687B681B6822F480725A607B68EA
:103690001B6859687B681B691A027B681B680A43B0
:1036A0005A607B681B685A687B681B6822F040720E
:1036B0005A607B681B6859687B689A687B681B68DE
:1036C0000A435A607B681B689A687B681B6822F40F
:1036D00000629A607B681B6899687B68DA687B681F
:1036E0001B680A439A607B689B6A584A934222D0BF
:1036F0007B681B689A687B681B6822F070629A601E
:103700007B681B6899687B689A6A7B681B680A43B8
:103710009A607B681B689A687B681B6822F040523D
:103720009A607B681B6899687B68DA6A7B681B68AB
:103730000A439A600FE07B681B689A687B681B6885
:1037400022F070629A607B681B689A687B681B68CD
:1037500022F040529A607B681B689A687B681B68FD
:1037600022F002029A607B681B6899687B681B7E66
:103770005A007B681B680A439A607B6893F8203084
:10378000002B1BD07B681B685A687B681B6842F45F
:1037900000625A607B681B685A687B681B6822F469
:1037A00060425A607B681B6859687B685B6A013BB2
:1037B0005A037B681B680A435A6007E07B681B68F2
:1037C0005A687B681B6822F400625A607B681B6839
:1037D000DA6A7B681B6822F47002DA627B681B6815
:1037E000D96A7B68DB69013B1A057B681B680A4361
:1037F000DA627B681B689A687B681B6822F4007237
:103800009A607B681B6899687B6893F830305A022D
:103810007B681B680A439A607B681B689A687B68B0
:103820001B6822F480629A607B681B6899687B68D9
:103830005B699A027B681B680A439A6000BF143771
:10384000BD465DF8047B7047002301400100000F76
:1038500080B584B000AF78607B689B6BFB60FB68D1
:103860001B6C03F05003002B3CD1FB681B6C43F432
:103870000072FB681A64FB681B689B6803F0405386
:10388000002B2BD1FB681B7E002B27D1FB681B680C
:10389000DB6A03F47003002B06D0FB681B689B688F
:1038A00003F48063002B19D1FB681B685A68FB681E
:1038B0001B6822F020025A60FB681B6C23F48072A4
:1038C000FB681A64FB681B6C03F48053002B05D162
:1038D000FB681B6C43F00102FB681A64F868FDF793
:1038E00099FB0EE0FB681B6C03F01003002B03D068
:1038F000F868FFF785FD04E0FB689B6BDB6C78687C
:10390000984700BF1037BD4680BD80B584B000AF7A
:1039100078607B689B6BFB60F868FFF75DFD00BF1C
:103920001037BD4680BD80B584B000AF78607B683D
:103930009B6BFB60FB6840221A64FB685B6C43F086
:103940000402FB685A64F868FFF75AFD00BF10379D
:10395000BD4680BD80B483B000AF786000BF0C3737
:10396000BD465DF8047B704780B485B000AF7860D9
:103970007B6803F00703FB600C4BDB68BB60BA6835
:103980004FF6FF031340BB60FB681A02BB6813438A
:1039900043F0BF6343F40033BB60044ABB68D360A9
:1039A00000BF1437BD465DF8047B704700ED00E0B2
:1039B00080B400AF044BDB681B0A03F00703184612
:1039C000BD465DF8047B704700ED00E080B483B035
:1039D00000AF0346FB7197F90730002B0BDBFB7937
:1039E00003F01F02074997F907305B09012000FA2D
:1039F00002F241F8232000BF0C37BD465DF8047B7E
:103A0000704700BF00E100E080B483B000AF034620
:103A10003960FB7197F90730002B0ADB3B68DAB29B
:103A20000C4997F907301201D2B20B4483F80023F6
:103A30000AE03B68DAB20849FB7903F00F03043B64
:103A40001201D2B20B441A7600BF0C37BD465DF8A6
:103A5000047B704700E100E000ED00E080B489B035
:103A600000AFF860B9607A60FB6803F00703FB61A0
:103A7000FB69C3F10703042B28BF0423BB61FB6967
:103A80000433062B02D9FB69033B00E000237B6172
:103A90004FF0FF32BB6902FA03F3DA43BB681A4006
:103AA0007B699A404FF0FF317B6901FA03F3D943F8
:103AB0007B680B40134318462437BD465DF8047BF2
:103AC000704780B582B000AF78607868FFF74CFF30
:103AD00000BF0837BD4680BD80B586B000AF034645
:103AE000B9607A60FB7300237B61FFF761FF786147
:103AF0007A68B9687869FFF7B1FF024697F90F3025
:103B000011461846FFF780FF00BF1837BD4680BD3D
:103B100080B582B000AF0346FB7197F907301846B5
:103B2000FFF754FF00BF0837BD4680BD80B586B0A3
:103B300000AF786000237B61FFF7BAF938617B68DA
:103B4000002B01D1012399E07B68022283F8352004
:103B50007B68002283F834207B681B681A687B68C6
:103B60001B6822F001021A600FE0FFF7A1F902467C
:103B70003B69D31A052B08D97B6820225A657B68DC
:103B8000032283F83520032378E07B681B681B68D9
:103B900003F00103002BE8D17B681B681B687B6185
:103BA0007A69384B13407B617B685A687B689B68F5
:103BB0001A437B68DB681A437B681B691A437B687E
:103BC0005B691A437B689B691A437B68DB691A430C
:103BD0007B681B6A13437A6913437B617B685B6A6A
:103BE000042B07D17B68DA6A7B681B6B13437A6905
:103BF00013437B617B681B687A691A607B681B686A
:103C00005B697B617B6923F007037B617B685B6A8F
:103C10007A6913437B617B685B6A042B17D17B68ED
:103C20009B6A7A6913437B617B68DB6A002B0ED049
:103C3000786800F001FB0346002B08D07B68402227
:103C40005A657B68012283F83520012316E07B68E2
:103C50001B687A695A61786800F0B8FA0346FB601D
:103C60007B68DB6D3F229A40FB689A607B6800228C
:103C70005A657B68012283F83520002318461837DF
:103C8000BD4680BD3F8010F080B586B000AFF860C3
:103C9000B9607A603B600023FB75FB689B6D3B61FC
:103CA000FB6893F83430012B01D1022340E0FB681C
:103CB000012283F83420FB6893F83530DBB2012B06
:103CC0002FD1FB68022283F83520FB6800225A6559
:103CD0003B687A68B968F86800F04AFAFB68DB6DFF
:103CE0003F229A403B699A60FB681B681A68FB6830
:103CF0001B6842F016021A60FB681B6C002B07D091
:103D0000FB681B681A68FB681B6842F008021A60AF
:103D1000FB681B681A68FB681B6842F001021A60A6
:103D200005E0FB68002283F834200223FB75FB7D4D
:103D300018461837BD4680BD80B584B000AF7860A6
:103D40007B689B6DFB60FFF7B3F8B8607B6893F806
:103D50003530DBB2022B08D07B6880225A657B6845
:103D6000002283F83420012352E07B681B681A6824
:103D70007B681B6822F016021A607B681B685A6910
:103D80007B681B6822F080025A617B681B6C002BE9
:103D900003D17B689B6C002B07D07B681B681A687B
:103DA0007B681B6822F008021A607B681B681A682F
:103DB0007B681B6822F001021A6013E0FFF778F8B5
:103DC0000246BB68D31A052B0CD97B6820225A65A2
:103DD0007B68032283F835207B68002283F8342037
:103DE000032315E07B681B681B6803F00103002BAD
:103DF000E4D17B68DB6D3F229A40FB689A607B6868
:103E0000012283F835207B68002283F834200023C8
:103E100018461037BD4680BD80B483B000AF7860CF
:103E20007B6893F83530DBB2022B04D07B688022AC
:103E30005A6501230CE07B68052283F835207B68F6
:103E40001B681A687B681B6822F001021A60002355
:103E500018460C37BD465DF8047B704780B586B0C8
:103E600000AF78600023BB60924B1B68924AA2FBB4
:103E700003239B0A7B617B689B6D3B613B691B68ED
:103E8000FB607B68DB6D08229A40FB681340002BC7
:103E90001AD07B681B681B6803F00403002B13D047
:103EA0007B681B681A687B681B6822F004021A6032
:103EB0007B68DB6D08229A403B699A607B685B6D8A
:103EC00043F001027B685A657B68DB6D01229A40F2
:103ED000FB681340002B12D07B681B685B6903F002
:103EE0008003002B0BD07B68DB6D01229A403B697D
:103EF0009A607B685B6D43F002027B685A657B6861
:103F0000DB6D04229A40FB681340002B12D07B68C3
:103F10001B681B6803F00203002B0BD07B68DB6D72
:103F200004229A403B699A607B685B6D43F004020F
:103F30007B685A657B68DB6D10229A40FB681340F2
:103F4000002B43D07B681B681B6803F00803002B21
:103F50003CD07B68DB6D10229A403B699A607B689D
:103F60001B681B6803F48023002B18D07B681B6838
:103F70001B6803F40023002B08D17B681B6C002B0B
:103F800024D07B681B6C786898471FE07B689B6C2B
:103F9000002B1BD07B689B6C7868984716E07B6889
:103FA0001B681B6803F48073002B07D17B681B68B8
:103FB0001A687B681B6822F008021A607B681B6C19
:103FC000002B03D07B681B6C786898477B68DB6D9F
:103FD00020229A40FB681340002B00F08E807B6803
:103FE0001B681B6803F01003002B00F086807B68C1
:103FF000DB6D20229A403B699A607B6893F83530EC
:10400000DBB2052B36D17B681B681A687B681B689E
:1040100022F016021A607B681B685A697B681B686D
:1040200022F080025A617B681B6C002B03D17B68F5
:104030009B6C002B07D07B681B681A687B681B6829
:1040400022F008021A607B68DB6D3F229A403B69D0
:104050009A607B68012283F835207B68002283F810
:1040600034207B681B6D002B7DD07B681B6D7868CE
:10407000984778E07B681B681B6803F48023002B5B
:104080001CD07B681B681B6803F40023002B08D13D
:104090007B685B6C002B30D07B685B6C78689847E2
:1040A0002BE07B68DB6B002B27D07B68DB6B7868B1
:1040B000984722E008000020B5814E1B7B681B68F2
:1040C0001B6803F48073002B0FD17B681B681A6890
:1040D0007B681B6822F010021A607B68012283F85B
:1040E00035207B68002283F834207B68DB6B002B53
:1040F00003D07B68DB6B786898477B685B6D002B2F
:1041000032D07B685B6D03F00103002B22D07B680B
:10411000052283F835207B681B681A687B681B685A
:1041200022F001021A60BB680133BB607A699A42CF
:1041300007D37B681B681B6803F00103002BF2D1D7
:1041400000E000BF7B68012283F835207B680022F5
:1041500083F834207B68DB6C002B05D07B68DB6C3C
:104160007868984700E000BF1837BD4680BD00BFA3
:1041700080B485B000AFF860B9607A603B60FB68DE
:104180001B681A68FB681B6822F480221A60FB68AF
:104190001B683A685A60FB689B68402B08D1FB6833
:1041A0001B687A689A60FB681B68BA68DA6007E087
:1041B000FB681B68BA689A60FB681B687A68DA60FB
:1041C00000BF1437BD465DF8047B704780B485B0EE
:1041D00000AF78607B681B68DBB2103B144AA2FB1F
:1041E00003231B09FB60134AFB6813441B781A4620
:1041F0007B68DA65FB68032B09D97B681B6823F4AD
:104200007F7323F003031A1D7B689A6507E07B68C0
:104210001B6823F47F7323F003037A6893657B683C
:104220009B6D18461437BD465DF8047B704700BF90
:10423000ABAAAAAA64FF020880B485B000AF786078
:104240000023FB737B689B6ABB607B689B69002BC8
:104250001FD1BB68032B56D801A252F823F000BF30
:1042600071420108834201087142010807430108B5
:104270007B68DB6A03F08073002B46D00123FB735D
:1042800043E07B68DB6AB3F1C07F40D10123FB735D
:104290003DE07B689B69B3F5005F21D1BB68032BD0
:1042A00037D801A252F823F0B9420108BF420108F1
:1042B000B9420108D14201080123FB7330E07B6859
:1042C000DB6A03F08073002B25D00123FB7322E00F
:1042D0007B68DB6AB3F1C07F1FD10123FB731CE055
:1042E000BB68022B03D9BB68032B03D018E0012362
:1042F000FB7315E07B68DB6A03F08073002B0ED044
:104300000123FB730BE000BF0AE000BF08E000BF21
:1043100006E000BF04E000BF02E000BF00E000BF15
:10432000FB7B18461437BD465DF8047B704700BF21
:1043300080B489B000AF7860396000237B610023CE
:104340003B610023BB610023FB616BE10122FB6940
:1043500002FA03F37B613B681B687A6913403B6197
:104360003A697B699A4240F05A813B685B6803F086
:104370000303012B05D03B685B6803F00303022BAA
:1043800030D17B689B68BB61FB695B00032202FA4A
:1043900003F3DB43BA691340BB613B68DA68FB692E
:1043A0005B0002FA03F3BA691343BB617B68BA6925
:1043B0009A607B685B68BB610122FB6902FA03F3C8
:1043C000DB43BA691340BB613B685B681B0903F0C0
:1043D0000102FB6902FA03F3BA691343BB617B680C
:1043E000BA695A603B685B6803F00303032B17D07C
:1043F0007B68DB68BB61FB695B00032202FA03F3A5
:10440000DB43BA691340BB613B689A68FB695B0098
:1044100002FA03F3BA691343BB617B68BA69DA60D5
:104420003B685B6803F00303022B23D1FB69DA08C6
:104430007B68083253F82230BB61FB6903F0070345
:104440009B000F2202FA03F3DB43BA691340BB61FE
:104450003B681A69FB6903F007039B0002FA03F348
:10446000BA691343BB61FB69DA087B680832B96932
:1044700043F822107B681B68BB61FB695B00032269
:1044800002FA03F3DB43BA691340BB613B685B6824
:1044900003F00302FB695B0002FA03F3BA691343FA
:1044A000BB617B68BA691A603B685B6803F44033A0
:1044B000002B00F0B4800023FB60604B5B6C5F4A14
:1044C00043F4804353645D4B5B6C03F48043FB60B7
:1044D000FB685B4AFB699B08023352F82330BB61DF
:1044E000FB6903F003039B000F2202FA03F3DB4393
:1044F000BA691340BB617B68524A93422BD07B68F8
:10450000514A934225D07B68504A93421FD07B6822
:104510004F4A934219D07B684E4A934213D07B682E
:104520004D4A93420DD07B684C4A934207D07B683A
:104530004B4A934201D107230EE008230CE00623E7
:104540000AE0052308E0042306E0032304E0022335
:1045500002E0012300E00023FA6902F00302920066
:104560009340BA691343BB613549FB699B08023329
:10457000BA6941F823203B4B9B68BB613B69DB4335
:10458000BA691340BB613B685B6803F48013002B7E
:1045900003D0BA693B691343BB61324ABB6993607C
:1045A000304BDB68BB613B69DB43BA691340BB61DD
:1045B0003B685B6803F40013002B03D0BA693B69C6
:1045C0001343BB61274ABB69D360264B5B68BB6161
:1045D0003B69DB43BA691340BB613B685B6803F42A
:1045E0000033002B03D0BA693B691343BB611D4AFA
:1045F000BB6953601B4B1B68BB613B69DB43BA69FA
:104600001340BB613B685B6803F48033002B03D02D
:10461000BA693B691343BB61124ABB691360FB690A
:104620000133FB61FB690F2B7FF690AE00BF00BF2B
:104630002437BD465DF8047B704700BF0038024058
:10464000003801400000024000040240000802401F
:10465000000C02400010024000140240001802400A
:10466000001C0240003C014080B487B000AF78607D
:10467000396000233B610023FB600023BB60002303
:104680007B61CDE001227B6902FA03F33B613A686A
:104690003B691340FB60FA683B699A4240F0BD8079
:1046A000654A7B699B08023352F82330BB607B6903
:1046B00003F003039B000F2202FA03F3BA681340CE
:1046C000BB607B685D4A93422BD07B685C4A934217
:1046D00025D07B685B4A93421FD07B685A4A93423D
:1046E00019D07B68594A934213D07B68584A934249
:1046F0000DD07B68574A934207D07B68564A934255
:1047000001D107230EE008230CE006230AE005236D
:1047100008E0042306E0032304E0022302E001236F
:1047200000E000237A6902F0030292009340BA6825
:104730009A4232D1494B1A68FB68DB434749134020
:104740000B60464B5A68FB68DB43444913404B609F
:10475000424BDA68FB68DB4340491340CB603F4B78
:104760009A68FB68DB433D4913408B607B6903F02B
:1047700003039B000F2202FA03F3BB602E4A7B69FE
:104780009B08023352F82310BB68DA432A487B693E
:104790009B080A40023340F823207B681A687B6933
:1047A0005B00032101FA03F3DB431A407B681A60C4
:1047B0007B69DA087B68083253F822107B6903F0C2
:1047C00007039B000F2202FA03F3DB437A69D20846
:1047D00019407B68083243F822107B68DA687B69ED
:1047E0005B00032101FA03F3DB431A407B68DA60C4
:1047F0007B685A6801217B6901FA03F3DB431A40A5
:104800007B685A607B689A687B695B00032101FAC8
:1048100003F3DB431A407B689A607B6901337B6159
:104820007B690F2B7FF62EAF00BF00BF1C37BD4644
:104830005DF8047B704700BF003801400000024073
:104840000004024000080240000C02400010024038
:104850000014024000180240001C0240003C0140CD
:1048600080B485B000AF78600B467B807B681A69A6
:104870007B881340002B02D00123FB7301E000234F
:10488000FB73FB7B18461437BD465DF8047B70470D
:1048900080B483B000AF78600B467B8013467B709A
:1048A0007B78002B03D07A887B689A6103E07B8851
:1048B0001A047B689A6100BF0C37BD465DF8047B23
:1048C000704780B485B000AF78600B467B807B6812
:1048D0005B69FB607A88FB6813401A04FB68D94364
:1048E0007B880B401A437B689A6100BF1437BD4632
:1048F0005DF8047B7047000080B584B000AF78603D
:104900007B68002B01D101232BE17B6893F83D30BC
:10491000DBB2002B06D17B68002283F83C2078684C
:10492000FDF752FE7B68242283F83D207B681B68DC
:104930001A687B681B6822F001021A607B681B689A
:104940001A687B681B6842F400421A607B681B6827
:104950001A687B681B6822F400421A6001F0B2FBFF
:10496000F8607B685B68814A934207D8FB68804A9D
:10497000934294BF01230023DBB206E0FB687D4A2B
:10498000934294BF01230023DBB2002B01D001230B
:10499000E7E0FB68784AA2FB03239B0CBB607B68C3
:1049A0001B685B6823F03F017B681B68BA680A4399
:1049B0005A607B681B681B6A23F03F017B685B6859
:1049C0006A4A934202D8BB68013309E0BB684FF4DE
:1049D000967202FB03F3694AA2FB03239B0901338E
:1049E0007A6812680B4313627B681B68DB6923F4E7
:1049F0004F4222F0FF027B685B685C498B4219D80A
:104A0000FB68591E7B685B685B00B1FBF3F3591CC4
:104A100040F6FC730B40002B0AD0FB68591E7B68E4
:104A20005B685B00B1FBF3F30133C3F30B0351E0AD
:104A300004234FE07B689B68002B11D1FB68581E54
:104A40007B6859680B465B000B44B0FBF3F3013302
:104A5000C3F30B03002B0CBF01230023DBB212E0D6
:104A6000FB68581E7B6859680B469B000B449900F5
:104A70000B44B0FBF3F30133C3F30B03002B0CBF68
:104A800001230023DBB2002B01D0012322E07B684D
:104A90009B68002B0ED1FB68581E7B6859680B463B
:104AA0005B000B44B0FBF3F30133C3F30B0343F49C
:104AB00000430FE0FB68581E7B6859680B469B005B
:104AC0000B4499000B44B0FBF3F30133C3F30B0326
:104AD00043F44043796809681343CB617B681B68E2
:104AE0001B6823F0C0017B68DA697B681B6A1A4384
:104AF0007B681B680A431A607B681B689B6823F409
:104B0000034323F0FF037A6811697A68D26811437E
:104B10007A6812680B4393607B681B68DB6823F03C
:104B2000FF017B685A697B689B691A437B681B6835
:104B30000A43DA607B681B681A687B681B6842F06E
:104B400001021A607B6800221A647B68202283F8C5
:104B50003D207B6800221A637B68002283F83E2098
:104B6000002318461037BD4680BD00BFA086010057
:104B70007F841E00FF083D0083DE1B43D34D62107F
:104B800080B582B000AF78607B68002B01D1012333
:104B900021E07B68242283F83D207B681B681A682B
:104BA0007B681B6822F001021A607868FDF754FDEB
:104BB0007B6800221A647B68002283F83D207B68B2
:104BC00000221A637B68002283F83E207B68002263
:104BD00083F83C20002318460837BD4680BD0000FE
:104BE00080B588B002AFF8607A601A460B467B81C8
:104BF00013463B81FEF75CF97861FB6893F83D3022
:104C0000DBB2202B40F0E0807B6900931923012266
:104C10007049F86800F058FC0346002B01D00223CD
:104C2000D3E0FB6893F83C30012B01D10223CCE0A8
:104C3000FB68012283F83C20FB681B681B6803F0BB
:104C40000103012B07D0FB681B681A68FB681B680F
:104C500042F001021A60FB681B681A68FB681B6857
:104C600022F400621A60FB68212283F83D20FB6871
:104C7000102283F83E20FB6800221A64FB687A68E1
:104C80005A62FB683A895A85FB685B8D9AB2FB6869
:104C90001A85FB68504ADA6279897B693A6AF86852
:104CA00000F0C2FA0346002B01D001238DE000235F
:104CB0003B61FB681B685B693B61FB681B689B6928
:104CC0003B613B6966E07A69396AF86800F0D2FCBA
:104CD0000346002B0DD0FB681B6C042B07D1FB682F
:104CE0001B681A68FB681B6842F400721A60012393
:104CF0006BE0FB685B6A1A78FB681B681A61FB68EB
:104D00005B6A5A1CFB685A62FB685B8D9BB2013B75
:104D10009AB2FB685A85FB681B8D013B9AB2FB680F
:104D20001A85FB681B685B6903F00403042B1BD125
:104D3000FB681B8D002B17D0FB685B6A1A78FB6839
:104D40001B681A61FB685B6A5A1CFB685A62FB6845
:104D50005B8D9BB2013B9AB2FB685A85FB681B8D49
:104D6000013B9AB2FB681A857A69396AF86800F0E3
:104D7000C2FC0346002B0DD0FB681B6C042B07D133
:104D8000FB681B681A68FB681B6842F400721A60B3
:104D900001231AE0FB681B8D002B94D1FB681B6874
:104DA0001A68FB681B6842F400721A60FB682022D4
:104DB00083F83D20FB68002283F83E20FB68002238
:104DC00083F83C20002300E0022318461837BD4634
:104DD00080BD00BF020010000000FFFF80B58CB056
:104DE00002AFF8607A601A460B467B8113463B811E
:104DF000FEF75EF87862FB6893F83D30DBB2202B5B
:104E000040F00B827B6A0093192301227C49F868E9
:104E100000F05AFB0346002B01D00223FEE1FB68A1
:104E200093F83C30012B01D10223F7E1FB6801220A
:104E300083F83C20FB681B681B6803F00103012B0F
:104E400007D0FB681B681A68FB681B6842F0010208
:104E50001A60FB681B681A68FB681B6822F4006212
:104E60001A60FB68222283F83D20FB68102283F839
:104E70003E20FB6800221A64FB687A685A62FB686D
:104E80003A895A85FB685B8D9AB2FB681A85FB6884
:104E90005C4ADA6279897B6A3A6BF86800F046FA14
:104EA0000346002B01D00123B8E1FB681B8D002BCA
:104EB00013D100233B62FB681B685B693B62FB68A4
:104EC0001B689B693B623B6AFB681B681A68FB684E
:104ED0001B6842F400721A608CE1FB681B8D012B89
:104EE0001BD1FB681B681A68FB681B6822F4806290
:104EF0001A600023FB61FB681B685B69FB61FB6850
:104F00001B689B69FB61FB69FB681B681A68FB688F
:104F10001B6842F400721A606CE1FB681B8D022B67
:104F20001BD1FB681B681A68FB681B6822F480624F
:104F30001A60FB681B681A68FB681B6842F4006211
:104F40001A600023BB61FB681B685B69BB61FB687F
:104F50001B689B69BB61BB694CE1FB681B681A68F5
:104F6000FB681B6842F480621A6000237B61FB6867
:104F70001B685B697B61FB681B689B697B617B6964
:104F800038E1FB681B8D032B00F2F180FB681B8D61
:104F9000012B23D17A6A396BF86800F0EDFB0346E8
:104FA000002B01D0012339E1FB681B681A69FB68FB
:104FB0005B6AD2B21A70FB685B6A5A1CFB685A6261
:104FC000FB681B8D013B9AB2FB681A85FB685B8D01
:104FD0009BB2013B9AB2FB685A850BE1FB681B8DC3
:104FE000022B4ED17B6A00933B6B00220649F86886
:104FF00000F06AFA0346002B08D001230EE100BF3F
:10500000020010000000FFFF04000100FB681B68A5
:105010001A68FB681B6842F400721A60FB681B6820
:105020001A69FB685B6AD2B21A70FB685B6A5A1C29
:10503000FB685A62FB681B8D013B9AB2FB681A85BC
:10504000FB685B8D9BB2013B9AB2FB685A85FB689B
:105050001B681A69FB685B6AD2B21A70FB685B6AEC
:105060005A1CFB685A62FB681B8D013B9AB2FB68B5
:105070001A85FB685B8D9BB2013B9AB2FB685A852F
:10508000B8E07B6A00933B6B00226649F86800F049
:105090001BFA0346002B01D00123BFE0FB681B680D
:1050A0001A68FB681B6822F480621A60FB681B6840
:1050B0001A69FB685B6AD2B21A70FB685B6A5A1C99
:1050C000FB685A62FB681B8D013B9AB2FB681A852C
:1050D000FB685B8D9BB2013B9AB2FB685A857B6A89
:1050E00000933B6B00224F49F86800F0EDF903464E
:1050F000002B01D0012391E0FB681B681A68FB6854
:105100001B6842F400721A60FB681B681A69FB682E
:105110005B6AD2B21A70FB685B6A5A1CFB685A62FF
:10512000FB681B8D013B9AB2FB681A85FB685B8D9F
:105130009BB2013B9AB2FB685A85FB681B681A69EF
:10514000FB685B6AD2B21A70FB685B6A5A1CFB6828
:105150005A62FB681B8D013B9AB2FB681A85FB689B
:105160005B8D9BB2013B9AB2FB685A8542E07A6A3A
:10517000396BF86800F000FB0346002B01D00123D7
:105180004CE0FB681B681A69FB685B6AD2B21A7054
:10519000FB685B6A5A1CFB685A62FB681B8D013B0B
:1051A0009AB2FB681A85FB685B8D9BB2013B9AB291
:1051B000FB685A85FB681B685B6903F00403042BDA
:1051C00018D1FB681B681A69FB685B6AD2B21A7057
:1051D000FB685B6A5A1CFB685A62FB681B8D013BCB
:1051E0009AB2FB681A85FB685B8D9BB2013B9AB251
:1051F000FB685A85FB681B8D002B7FF4C2AEFB68F1
:10520000202283F83D20FB68002283F83E20FB68C3
:10521000002283F83C20002300E0022318462837B0
:10522000BD4680BD0400010080B588B002AFF860C3
:105230007A603B600B467B81FB68DB6A7B617B6944
:10524000082B06D07B69012B03D07B6913F5803FC7
:1052500008D1FB681B681A68FB681B6842F48072FF
:105260001A600BE0FB681B6B122B07D1FB681B68F5
:105270001A68FB681B6842F480721A603B680093EE
:105280007B6800224FF00111F86800F01DF9034619
:10529000002B0DD0FB681B681B6803F48073B3F50B
:1052A000807F03D1FB684FF400721A64032335E05A
:1052B000FB681B69B3F5804F08D17B89DBB21A46C6
:1052C000FB681B6802F0FE021A611BE07B89DB11A0
:1052D000DBB203F00603DBB263F00F03DAB2FB6864
:1052E0001B681A613B687A680E49F86800F043F958
:1052F0000346002B01D0012310E07B89DAB2FB6862
:105300001B681A613B687A680749F86800F033F94E
:105310000346002B01D0012300E000231846183774
:10532000BD4680BD080001000200010080B588B0C4
:1053300002AFF8607A603B600B467B81FB68DB6AFA
:105340007B61FB681B681A68FB681B6842F480621B
:105350001A607B69082B06D07B69012B03D07B691F
:1053600013F5803F08D1FB681B681A68FB681B684F
:1053700042F480721A600BE0FB681B6B112B07D1A3
:10538000FB681B681A68FB681B6842F480721A602D
:105390003B6800937B6800224FF00111F86800F031
:1053A00093F80346002B0DD0FB681B681B6803F4C1
:1053B0008073B3F5807F03D1FB684FF400721A64E9
:1053C000032379E0FB681B69B3F5804F08D17B8923
:1053D000DBB243F00103DAB2FB681B681A615FE0DD
:1053E0007B89DB11DBB203F00603DBB263F00F0352
:1053F000DAB2FB681B681A613B687A683049F86862
:1054000000F0B9F80346002B01D0012354E07B895A
:10541000DAB2FB681B681A613B687A682949F86848
:1054200000F0A9F80346002B01D0012344E000233B
:105430003B61FB681B685B693B61FB681B689B69A0
:105440003B613B69FB681B681A68FB681B6842F498
:1054500080721A603B6800937B6800224FF0011154
:10546000F86800F031F80346002B0DD0FB681B688C
:105470001B6803F48073B3F5807F03D1FB684FF49E
:1054800000721A64032317E07B89DB11DBB203F09F
:105490000603DBB263F00E03DAB2FB681B681A6125
:1054A0003B687A680749F86800F065F80346002B06
:1054B00001D0012300E0002318461837BD4680BD07
:1054C000080001000200010080B584B000AFF86060
:1054D000B9603B601346FB7125E03B68B3F1FF3FC9
:1054E00021D0FDF7E5FC0246BB69D31A3A689A421F
:1054F00002D33B68002B16D1FB6800221A63FB68BD
:10550000202283F83D20FB68002283F83E20FB68C0
:105510001B6C43F02002FB681A64FB68002283F8CE
:105520003C20012323E0BB681B0CDBB2012B0DD117
:10553000FB681B685B69DA43BB6813409BB2002BB6
:105540000CBF01230023DBB21A460CE0FB681B688A
:105550009B69DA43BB6813409BB2002B0CBF01234D
:105560000023DBB21A46FB799A42B6D000231846D4
:105570001037BD4680BD80B584B000AFF860B9601B
:105580007A603B6051E0FB681B685B6903F48063F1
:10559000B3F5806F23D1FB681B681A68FB681B6832
:1055A00042F400721A60FB681B686FF480625A61F3
:1055B000FB6800221A63FB68202283F83D20FB6809
:1055C000002283F83E20FB681B6C43F00402FB685A
:1055D0001A64FB68002283F83C20012346E07B68C4
:1055E000B3F1FF3F21D0FDF763FC02463B68D31ABD
:1055F0007A689A4202D37B68002B16D1FB6800229E
:105600001A63FB68202283F83D20FB68002283F8A0
:105610003E20FB681B6C43F02002FB681A64FB68A9
:10562000002283F83C20012320E0BB681B0CDBB286
:10563000012B0CD1FB681B685B69DA43BB68134024
:105640009BB2002B14BF01230023DBB20BE0FB68ED
:105650001B689B69DA43BB6813409BB2002B14BFE5
:1056600001230023DBB2002B8DD100231846103715
:10567000BD4680BD80B584B000AFF860B9607A6087
:105680002DE0F86800F0CEF80346002B01D001238E
:105690002DE0BB68B3F1FF3F21D0FDF709FC0246C6
:1056A0007B68D31ABA689A4202D3BB68002B16D122
:1056B000FB6800221A63FB68202283F83D20FB6808
:1056C000002283F83E20FB681B6C43F02002FB683D
:1056D0001A64FB68002283F83C20012307E0FB6882
:1056E0001B685B6903F08003802BCAD10023184636
:1056F0001037BD4680BD80B584B000AFF860B9609A
:105700007A602DE0F86800F08DF80346002B01D098
:1057100001232DE0BB68B3F1FF3F21D0FDF7C8FBAB
:1057200002467B68D31ABA689A4202D3BB68002B40
:1057300016D1FB6800221A63FB68202283F83D2003
:10574000FB68002283F83E20FB681B6C43F02002BC
:10575000FB681A64FB68002283F83C20012307E001
:10576000FB681B685B6903F00403042BCAD10023A8
:1057700018461037BD4680BD80B584B000AFF860D4
:10578000B9607A6042E0FB681B685B6903F0100354
:10579000102B19D1FB681B686FF010025A61FB686F
:1057A00000221A63FB68202283F83D20FB68002258
:1057B00083F83E20FB681A6CFB681A64FB680022C1
:1057C00083F83C20012329E0FDF772FB02467B6849
:1057D000D31ABA689A4202D3BB68002B16D1FB6871
:1057E00000221A63FB68202283F83D20FB68002218
:1057F00083F83E20FB681B6C43F02002FB681A64B0
:10580000FB68002283F83C20012307E0FB681B684B
:105810005B6903F04003402BB5D1002318461037D5
:10582000BD4680BD80B483B000AF78607B681B68E4
:105830005B6903F48063B3F5806F1BD17B681B68E1
:105840006FF480625A617B6800221A637B682022B1
:1058500083F83D207B68002283F83E207B681B6C28
:1058600043F004027B681A647B68002283F83C20C2
:10587000012300E0002318460C37BD465DF8047B89
:105880007047000080B586B000AF78607B68002B61
:1058900001D1012364E27B681B6803F00103002B44
:1058A00075D0A34B9B6803F00C03042B0CD0A04BCA
:1058B0009B6803F00C03082B12D19D4B5B6803F42B
:1058C0008003B3F5800F0BD1994B1B6803F40033B1
:1058D000002B5BD07B685B68002B57D101233FE234
:1058E0007B685B68B3F5803F06D1914B1B68904A9B
:1058F00043F4803313601DE07B685B68B3F5A02F31
:105900000CD18B4B1B688A4A43F480231360884B6D
:105910001B68874A43F4803313600BE0844B1B6899
:10592000834A23F480331360814B1B68804A23F43D
:10593000802313607B685B68002B13D0FDF7B8FAF7
:10594000386108E0FDF7B4FA02463B69D31A642BCC
:1059500001D9032304E2764B1B6803F40033002BC8
:10596000F0D014E0FDF7A4FA386108E0FDF7A0FAE2
:1059700002463B69D31A642B01D90323F0E16C4B37
:105980001B6803F40033002BF0D100E000BF7B68FC
:105990001B6803F00203002B63D0654B9B6803F088
:1059A0000C03002B0BD0624B9B6803F00C03082BFD
:1059B0001CD15F4B5B6803F48003002B16D15C4B5A
:1059C0001B6803F00203002B05D07B68DB68012B0A
:1059D00001D00123C4E1564B1B6823F0F8027B6819
:1059E0001B69DB00524913430B603AE07B68DB68BC
:1059F000002B20D04F4B01221A60FDF759FA386175
:105A000008E0FDF755FA02463B69D31A022B01D98B
:105A10000323A5E1464B1B6803F00203002BF0D0E3
:105A2000434B1B6823F0F8027B681B69DB0040498D
:105A300013430B6015E03F4B00221A60FDF738FA64
:105A4000386108E0FDF734FA02463B69D31A022BAD
:105A500001D9032384E1364B1B6803F00203002BBA
:105A6000F0D17B681B6803F00803002B30D07B6803
:105A70005B69002B16D0304B01221A60FDF718FA33
:105A8000386108E0FDF714FA02463B69D31A022B8D
:105A900001D9032364E1264B5B6F03F00203002B63
:105AA000F0D015E0244B00221A60FDF701FA3861AE
:105AB00008E0FDF7FDF902463B69D31A022B01D934
:105AC00003234DE11A4B5B6F03F00203002BF0D16F
:105AD0007B681B6803F00403002B00F0A080002308
